{
  "_format": "hh-sol-artifact-1",
  "contractName": "PollutionRecord",
  "sourceName": "contracts/PollutionRecord.sol",
  "abi": [
    {
      "anonymous": false,
      "inputs": [
        {
          "indexed": true,
          "internalType": "string",
          "name": "locationId",
          "type": "string"
        },
        {
          "indexed": false,
          "internalType": "string",
          "name": "cid",
          "type": "string"
        },
        {
          "indexed": false,
          "internalType": "uint256",
          "name": "timestamp",
          "type": "uint256"
        }
      ],
      "name": "RecordCreated",
      "type": "event"
    },
    {
      "inputs": [
        {
          "internalType": "string",
          "name": "locationId",
          "type": "string"
        }
      ],
      "name": "getRecord",
      "outputs": [
        {
          "internalType": "string",
          "name": "cid",
          "type": "string"
        },
        {
          "internalType": "uint256",
          "name": "timestamp",
          "type": "uint256"
        }
      ],
      "stateMutability": "view",
      "type": "function"
    },
    {
      "inputs": [
        {
          "internalType": "string",
          "name": "",
          "type": "string"
        }
      ],
      "name": "records",
      "outputs": [
        {
          "internalType": "string",
          "name": "cid",
          "type": "string"
        },
        {
          "internalType": "uint256",
          "name": "timestamp",
          "type": "uint256"
        },
        {
          "internalType": "string",
          "name": "locationId",
          "type": "string"
        }
      ],
      "stateMutability": "view",
      "type": "function"
    },
    {
      "inputs": [
        {
          "internalType": "string",
          "name": "locationId",
          "type": "string"
        },
        {
          "internalType": "string",
          "name": "cid",
          "type": "string"
        }
      ],
      "name": "storeRecord",
      "outputs": [],
      "stateMutability": "nonpayable",
      "type": "function"
    }
  ],
  "bytecode": "0x608060405234801561001057600080fd5b50610adb806100206000396000f3fe608060405234801561001057600080fd5b50600436106100415760003560e01c806311dd884514610046578063541e771d146100775780636386953f146100a9575b600080fd5b610060600480360381019061005b91906105a6565b6100c5565b60405161006e929190610687565b60405180910390f35b610091600480360381019061008c91906105a6565b610237565b6040516100a0939291906106b7565b60405180910390f35b6100c360048036038101906100be91906106fc565b610387565b005b60606000806000846040516100da91906107b0565b9081526020016040518091039020604051806060016040529081600082018054610103906107f6565b80601f016020809104026020016040519081016040528092919081815260200182805461012f906107f6565b801561017c5780601f106101515761010080835404028352916020019161017c565b820191906000526020600020905b81548152906001019060200180831161015f57829003601f168201915b505050505081526020016001820154815260200160028201805461019f906107f6565b80601f01602080910402602001604051908101604052809291908181526020018280546101cb906107f6565b80156102185780601f106101ed57610100808354040283529160200191610218565b820191906000526020600020905b8154815290600101906020018083116101fb57829003601f168201915b5050505050815250509050806000015181602001519250925050915091565b600081805160208101820180518482526020830160208501208183528095505050505050600091509050806000018054610270906107f6565b80601f016020809104026020016040519081016040528092919081815260200182805461029c906107f6565b80156102e95780601f106102be576101008083540402835291602001916102e9565b820191906000526020600020905b8154815290600101906020018083116102cc57829003601f168201915b505050505090806001015490806002018054610304906107f6565b80601f0160208091040260200160405190810160405280929190818152602001828054610330906107f6565b801561037d5780601f106103525761010080835404028352916020019161037d565b820191906000526020600020905b81548152906001019060200180831161036057829003601f168201915b5050505050905083565b6040518060600160405280828152602001428152602001838152506000836040516103b291906107b0565b908152602001604051809103902060008201518160000190816103d591906109d3565b506020820151816001015560408201518160020190816103f591906109d3565b509050508160405161040791906107b0565b60405180910390207fa6b0bcf273e2ff8137923d19cf2abfceaac55ffb3034cea7a481ad65225ebbfa8242604051610440929190610687565b60405180910390a25050565b6000604051905090565b600080fd5b600080fd5b600080fd5b600080fd5b6000601f19601f8301169050919050565b7f4e487b7100000000000000000000000000000000000000000000000000000000600052604160045260246000fd5b6104b38261046a565b810181811067ffffffffffffffff821117156104d2576104d161047b565b5b80604052505050565b60006104e561044c565b90506104f182826104aa565b919050565b600067ffffffffffffffff8211156105115761051061047b565b5b61051a8261046a565b9050602081019050919050565b82818337600083830152505050565b6000610549610544846104f6565b6104db565b90508281526020810184848401111561056557610564610465565b5b610570848285610527565b509392505050565b600082601f83011261058d5761058c610460565b5b813561059d848260208601610536565b91505092915050565b6000602082840312156105bc576105bb610456565b5b600082013567ffffffffffffffff8111156105da576105d961045b565b5b6105e684828501610578565b91505092915050565b600081519050919050565b600082825260208201905092915050565b60005b8381101561062957808201518184015260208101905061060e565b60008484015250505050565b6000610640826105ef565b61064a81856105fa565b935061065a81856020860161060b565b6106638161046a565b840191505092915050565b6000819050919050565b6106818161066e565b82525050565b600060408201905081810360008301526106a18185610635565b90506106b06020830184610678565b9392505050565b600060608201905081810360008301526106d18186610635565b90506106e06020830185610678565b81810360408301526106f28184610635565b9050949350505050565b6000806040838503121561071357610712610456565b5b600083013567ffffffffffffffff8111156107315761073061045b565b5b61073d85828601610578565b925050602083013567ffffffffffffffff81111561075e5761075d61045b565b5b61076a85828601610578565b9150509250929050565b600081905092915050565b600061078a826105ef565b6107948185610774565b93506107a481856020860161060b565b80840191505092915050565b60006107bc828461077f565b915081905092915050565b7f4e487b7100000000000000000000000000000000000000000000000000000000600052602260045260246000fd5b6000600282049050600182168061080e57607f821691505b602082108103610821576108206107c7565b5b50919050565b60008190508160005260206000209050919050565b60006020601f8301049050919050565b600082821b905092915050565b6000600883026108897fffffffffffffffffffffffffffffffffffffffffffffffffffffffffffffffff8261084c565b610893868361084c565b95508019841693508086168417925050509392505050565b6000819050919050565b60006108d06108cb6108c68461066e565b6108ab565b61066e565b9050919050565b6000819050919050565b6108ea836108b5565b6108fe6108f6826108d7565b848454610859565b825550505050565b600090565b610913610906565b61091e8184846108e1565b505050565b5b818110156109425761093760008261090b565b600181019050610924565b5050565b601f8211156109875761095881610827565b6109618461083c565b81016020851015610970578190505b61098461097c8561083c565b830182610923565b50505b505050565b600082821c905092915050565b60006109aa6000198460080261098c565b1980831691505092915050565b60006109c38383610999565b9150826002028217905092915050565b6109dc826105ef565b67ffffffffffffffff8111156109f5576109f461047b565b5b6109ff82546107f6565b610a0a828285610946565b600060209050601f831160018114610a3d5760008415610a2b578287015190505b610a3585826109b7565b865550610a9d565b601f198416610a4b86610827565b60005b82811015610a7357848901518255600182019150602085019450602081019050610a4e565b86831015610a905784890151610a8c601f891682610999565b8355505b6001600288020188555050505b50505050505056fea26469706673582212200a26178b18520b6550e37719bfc35e1f796d11cd21e97066ff5bf85c0646f05064736f6c63430008140033",
  "linkReferences": {},
  "deployedLinkReferences": {}
}